:100000000C947B000C948D000C948D000C948D004E
:100010000C948D000C948D000C948D000C948D002C
:100020000C948D000C948D000C948D000C948D001C
:100030000C948D000C948D000C948D000C948D000C
:100040000C948D000C948D000C948D000C948D00FC
:100050000C948D00C900E200FB0014012C012C015E
:100060002C012C012C012C012C012C012C012C0128
:100070002C012C012C012C012C012C012C012C0118
:100080002C012C012C012C012C012C012C012C0108
:100090002C012C01C900E200FB00140139015201BE
:1000A0006B0184019C019C019C019C019C019C01B1
:1000B0009C019C019C019C019C019C019C019C0158
:1000C0009C019C019C019C019C019C019C019C0148
:1000D0009C019C019C019C019C019C0139015201E5
:1000E0006B0184017102B302F50237037903B00397
:1000F0009A03D203CE0311241FBECFE5D8E0DEBFA2
:10010000CDBF20E0A0E6B0E001C01D92AE36B20740
:10011000E1F70E94BC010C94ED060C94000086B13E
:10012000806886B987B18E7F87B987B18D7F87B99F
:1001300087B18B7F87B987B1877F87B987B18F7E7A
:1001400087B987B1806487B987B1806887B986B17C
:100150008E7F86B986B1826086B986B1846086B9A1
:10016000089586B1806486B93699FECF24B185B1F1
:1001700090E0982F8827822B089590E0FC01E154AD
:10018000F109E432F10508F067C0E65DFF4F0C9419
:10019000E706413059F42AB381E090E002C0880FAD
:1001A000991F6A95E2F7822B8ABB08952AB381E0F2
:1001B00090E002C0880F991F6A95E2F7809582232C
:1001C0008ABB0895413059F427B381E090E002C022
:1001D000880F991F6A95E2F7822B87BB089527B392
:1001E00081E090E002C0880F991F6A95E2F7809540
:1001F000822387BB0895413059F424B381E090E015
:1002000002C0880F991F6A95E2F7822B84BB08957C
:1002100024B381E090E002C0880F991F6A95E2F74D
:100220008095822384BB0895413059F421B381E045
:1002300090E002C0880F991F6A95E2F7822B81BB7C
:10024000089521B381E090E002C0880F991F6A955C
:10025000E2F78095822381BB089590E0FC01E15490
:10026000F109E432F10508F067C0E25BFF4F0C943E
:10027000E706413059F42BB381E090E002C0880FCB
:10028000991F6A95E2F7822B8BBB08952BB381E00F
:1002900090E002C0880F991F6A95E2F7809582234B
:1002A0008BBB0895413059F428B381E090E002C03F
:1002B000880F991F6A95E2F7822B88BB089528B3AF
:1002C00081E090E002C0880F991F6A95E2F780955F
:1002D000822388BB0895413059F425B381E090E032
:1002E00002C0880F991F6A95E2F7822B85BB08959B
:1002F00025B381E090E002C0880F991F6A95E2F76C
:100300008095822385BB0895413059F422B381E062
:1003100090E002C0880F991F6A95E2F7822B82BB9A
:10032000089522B381E090E002C0880F991F6A957A
:10033000E2F78095822382BB08958EBB9FBB6DBB85
:100340008CB384608CBB8CB382608CBBE199FECF94
:1003500008958EBB9FBB8CB381608CBB8DB3089519
:1003600041E00E94BD00089541E00E942D010895E2
:1003700040E00E942D01089560E083E40E94B001F6
:1003800061E083E40E94B00162E083E40E94B00176
:1003900063E083E40E94B00164E083E40E94B00162
:1003A00065E083E40E94B00166E083E40E94B0014E
:1003B00067E083E40E94B00166E084E40E94B0013B
:1003C00067E084E40E94B0010E948F000E94CF0485
:1003D00081E290E00E94A9018093670082E290E0B0
:1003E0000E94A90180936D0083E290E00E94A90120
:1003F0008093660084E290E00E94A90180936800E7
:1004000085E290E00E94A9018093690086E290E075
:100410000E94A90180936B0087E290E00E94A901ED
:100420008093610088E290E00E94A90180936500BA
:1004300089E290E00E94A90180936A0080E390E045
:100440000E94A9018093600081E390E00E94A901CD
:100450008093640082E390E00E94A90190E0909371
:10046000630080936200809167000E94D9048091AC
:100470006D000E94D904809166000E94D904809189
:1004800068000E94D904809169000E94D90480917B
:100490006B000E94D904809161000E94D904809170
:1004A00065000E94D90480916A000E94D90480915D
:1004B00060000E94D904809164000E94D904809158
:1004C00062000E94D9048FEF0E94D90490E0FC01E1
:1004D000F197E930F10508F065C1EE58FF4F0C9433
:1004E000E7068FEF0E94D904C82F8FEF0E94D9042E
:1004F000C133D9F4813369F460E083E40E94B4012C
:1005000081E08093670061E081E290E00E949D01BC
:1005100049C160E083E40E94B8011092670060E086
:1005200081E290E00E949D013DC1C23309F03AC1D1
:10053000813369F464E083E40E94B40181E0809334
:10054000690061E085E290E00E949D012BC164E0BA
:1005500083E40E94B8011092690060E085E290E0B7
:100560000E949D011FC18FEF0E94D904C82F8FEFF9
:100570000E94D904C133D9F4813369F461E083E482
:100580000E94B40181E080936D0061E082E290E01E
:100590000E949D0107C161E083E40E94B8011092AE
:1005A0006D0060E082E290E00E949D01FBC0C233DA
:1005B00009F0F8C0813369F465E083E40E94B40176
:1005C00081E080936B0061E086E290E00E949D01F3
:1005D000E9C065E083E40E94B80110926B0060E01E
:1005E00086E290E00E949D01DDC08FEF0E94D90459
:1005F000C82F8FEF0E94D904C133D9F4813369F435
:1006000062E083E40E94B40181E08093660061E0CF
:1006100083E290E00E949D01C5C062E083E40E94F5
:10062000B8011092660060E083E290E00E949D01B4
:10063000B9C0C23309F0B6C0813369F466E083E41F
:100640000E94B40181E08093610061E087E290E064
:100650000E949D01A7C066E083E40E94B801109249
:10066000610060E087E290E00E949D019BC08FEFF7
:100670000E94D904C82F8FEF0E94D904C133D9F446
:10068000813369F463E083E40E94B40181E08093E4
:10069000680061E084E290E00E949D0183C063E015
:1006A00083E40E94B8011092680060E084E290E068
:1006B0000E949D0177C0C23309F074C0813369F490
:1006C00067E083E40E94B40181E08093650061E00B
:1006D00088E290E00E949D0165C067E083E40E948B
:1006E000B8011092650060E088E290E00E949D01F0
:1006F00059C08FEF0E94D904813379F460E070E033
:1007000084EB92E40E94960481E080936A0061E0A9
:1007100089E290E00E949D0145C060E070E0CB015D
:100720000E94960410926A0060E089E290E00E94C4
:100730009D0138C08FEF0E94D904813349F481E0D4
:100740008093640061E081E390E00E949D012AC0F3
:100750001092640060E081E390E00E949D0122C05D
:100760008FEF0E94D904813369F466E084E40E942B
:10077000B40181E08093600061E080E390E00E943A
:100780009D0110C066E084E40E94B80110926000F0
:1007900060E080E390E00E949D0104C080916200CF
:1007A0000E94D90480916700813029F460E083E4DD
:1007B0000E94B40104C060E083E40E94B80180910B
:1007C0006D00813029F461E083E40E94B40104C02B
:1007D00061E083E40E94B80180916600813029F4D1
:1007E00062E083E40E94B40104C062E083E40E94FA
:1007F000B80180916800813029F463E083E40E94AD
:10080000B40104C063E083E40E94B80180916900F0
:10081000813029F464E083E40E94B40104C064E000
:1008200083E40E94B80180916B00813029F465E077
:1008300083E40E94B40104C065E083E40E94B8012F
:1008400080916100813029F466E083E40E94B40164
:1008500004C066E083E40E94B801809165008130A5
:1008600029F467E083E40E94B40104C067E083E4F4
:100870000E94B80180916000813029F466E084E430
:100880000E94B40104C066E084E40E94B801809133
:100890006A00813039F460E070E084EB92E40E94F9
:1008A000960405C060E070E0CB010E9496040E94AF
:1008B000B10080936C00682F70E080E090E00E94AF
:1008C000EE052AE037ED43E25BE30E947A0620E082
:1008D00030E04AE754E40E947A0620E030E040E24B
:1008E00051E40E944B050E94BD0560936200709325
:1008F000630082E390E00E949D018091640081305A
:1009000081F48091620090916300489728F067E03D
:1009100084E40E94B401D7CD67E084E40E94B8016A
:10092000D2CD67E084E40E94B801CDCD2FB52E7FF3
:100930002FBD2FB522602FBD2EB528602EBD2EB540
:1009400020612EBD2EB521602EBD2EB52D7F2EBD72
:100950002EB52B7F2EBD21B3206221BB2FB52F7B5F
:100960002FBD2FB520682FBD21E63BE046EB5BE3B2
:100970000E947A0620E030E040EC5FE30E94DF0452
:1009800020E030E04AE754E40E947A060E94BD0568
:100990007BBD6ABD8FE19EE497BD86BD089587B398
:1009A000806487BB8DB180648DB98DB18F7E8DB928
:1009B00008958FB9779BFECF8FB108955058BB270C
:1009C000AA270E94F6040C9440060E94320638F0D2
:1009D0000E94390620F039F49F3F19F426F40C9454
:1009E0002F060EF4E095E7FB0C942906E92F0E94F0
:1009F000510658F3BA17620773078407950720F06A
:100A000079F4A6F50C9473060EF4E0950B2EBA2F2C
:100A1000A02D0B01B90190010C01CA01A001112404
:100A2000FF27591B99F0593F50F4503E68F11A16B0
:100A3000F040A22F232F342F4427585FF3CF469541
:100A400037952795A795F0405395C9F77EF41F1663
:100A5000BA0B620B730B840BBAF09150A1F0FF0F2D
:100A6000BB1F661F771F881FC2F70EC0BA0F621F19
:100A7000731F841F48F4879577956795B795F79509
:100A80009E3F08F0B0CF9395880F08F09927EE0F9E
:100A90009795879508950E945F050C9440060E94E3
:100AA000390658F00E94320640F029F45F3F29F0E1
:100AB0000C94290651110C9474060C942F060E9474
:100AC000510668F39923B1F3552391F3951B550B08
:100AD000BB27AA2762177307840738F09F5F5F4F11
:100AE000220F331F441FAA1FA9F335D00E2E3AF050
:100AF000E0E832D091505040E695001CCAF72BD068
:100B0000FE2F29D0660F771F881FBB1F26173707B8
:100B10004807AB07B0E809F0BB0B802DBF01FF27EA
:100B200093585F4F3AF09E3F510578F00C94290698
:100B30000C9474065F3FE4F3983ED4F38695779562
:100B40006795B795F7959F5FC9F7880F911D9695A3
:100B5000879597F90895E1E0660F771F881FBB1FFF
:100B6000621773078407BA0720F0621B730B840BAC
:100B7000BA0BEE1F88F7E09508950E94590688F099
:100B80009F5798F0B92F9927B751B0F0E1F0660F51
:100B9000771F881F991F1AF0BA95C9F714C0B13092
:100BA00091F00E947306B1E008950C947306672FCC
:100BB000782F8827B85F39F0B93FCCF386957795C1
:100BC0006795B395D9F73EF49095809570956195AA
:100BD0007F4F8F4F9F4F0895E89409C097FB3EF4D5
:100BE00090958095709561957F4F8F4F9F4F99237A
:100BF000A9F0F92F96E9BB279395F69587957795F8
:100C00006795B795F111F8CFFAF4BB0F11F460FFB7
:100C10001BC06F5F7F4F8F4F9F4F16C0882311F00F
:100C200096E911C0772321F09EE8872F762F05C023
:100C3000662371F096E8862F70E060E02AF09A95BE
:100C4000660F771F881FDAF7880F9695879597F9B3
:100C5000089597F99F6780E870E060E008959FEF3E
:100C600080EC089500240A94161617061806090643
:100C7000089500240A941216130614060506089512
:100C8000092E0394000C11F4882352F0BB0F40F49A
:100C9000BF2B11F460FF04C06F5F7F4F8F4F9F4FDA
:100CA000089557FD9058440F551F59F05F3F71F05C
:100CB0004795880F97FB991F61F09F3F79F08795C3
:100CC0000895121613061406551FF2CF4695F1DF4C
:100CD00008C0161617061806991FF1CF86957105DC
:100CE000610508940895E894BB2766277727CB0110
:100CF00097F908950E948D060C9440060E943206D2
:100D000038F00E94390620F0952311F00C94290642
:100D10000C942F0611240C9474060E94510670F353
:100D2000959FC1F3950F50E0551F629FF001729F90
:100D3000BB27F00DB11D639FAA27F00DB11DAA1F9F
:100D4000649F6627B00DA11D661F829F2227B00DEC
:100D5000A11D621F739FB00DA11D621F839FA00D77
:100D6000611D221F749F3327A00D611D231F849FC7
:100D7000600D211D822F762F6A2F11249F5750401E
:100D80009AF0F1F088234AF0EE0FFF1FBB1F661F99
:100D9000771F881F91505040A9F79E3F510580F062
:100DA0000C9429060C9474065F3FE4F3983ED4F348
:100DB000869577956795B795F795E7959F5FC1F706
:100DC000FE2B880F911D9695879597F90895EE0F44
:0E0DD000FF1F0590F491E02D0994F894FFCFD9
:00000001FF
