:100000000C94DE000C94FB000C94FB000C94FB00A1
:100010000C94FB000C94FB000C94FB000C94FB0074
:100020000C94FB000C94FB000C94A7120C94FB00A6
:100030000C94FB000C94FB000C94FB000C94FB0054
:100040000C94FB000C94FB000C94FB000C94FB0044
:100050000C94FB00090122013B0154016C016C016D
:100060006C016C016C016C016C016C016C016C0128
:100070006C016C016C016C016C016C016C016C0118
:100080006C016C016C016C016C016C016C016C0108
:100090006C016C01090122013B01540179019201BB
:1000A000AB01C401DC01DC01DC01DC01DC01DC01B1
:1000B000DC01DC01DC01DC01DC01DC01DC01DC0158
:1000C000DC01DC01DC01DC01DC01DC01DC01DC0148
:1000D000DC01DC01DC01DC01DC01DC0179019201E5
:1000E000AB01C401E901FD01110225023902390207
:1000F0003902390239023902390239023902390228
:100100003902390239023902390239023902390217
:100110003902390239023902390239023902390207
:1001200039023902E901FD0111022502470260028C
:1001300079029202AA02AA02AA02AA02AA02AA02A8
:10014000AA02AA02AA02AA02AA02AA02AA02AA024F
:10015000AA02AA02AA02AA02AA02AA02AA02AA023F
:10016000AA02AA02AA02AA02AA02AA0247026002DC
:1001700079029202B802BF02C602CD02D302D302B4
:10018000D302D302D302D302D302D302D302D302C7
:10019000D302D302D302D302D302D302D302D302B7
:1001A000D302D302D302D302D302D302D302D302A7
:1001B000D302D302B802BF02C602CD0211241FBE71
:1001C000CFE5D8E0DEBFCDBF13E0A0E6B0E0E6E1CA
:1001D000F6E202C005900D92AE32B107D9F723E0E6
:1001E000AEE2B3E001C01D92AE33B207E1F70E9468
:1001F000CB040C9409130C94000090E0FC01E15432
:10020000F109E432F10508F067C0E65DFF4F0C9498
:100210000313413059F42AB381E090E002C0880F03
:10022000991F6A95E2F7822B8ABB08952AB381E071
:1002300090E002C0880F991F6A95E2F780958223AB
:100240008ABB0895413059F427B381E090E002C0A1
:10025000880F991F6A95E2F7822B87BB089527B311
:1002600081E090E002C0880F991F6A95E2F78095BF
:10027000822387BB0895413059F424B381E090E094
:1002800002C0880F991F6A95E2F7822B84BB0895FC
:1002900024B381E090E002C0880F991F6A95E2F7CD
:1002A0008095822384BB0895413059F421B381E0C5
:1002B00090E002C0880F991F6A95E2F7822B81BBFC
:1002C000089521B381E090E002C0880F991F6A95DC
:1002D000E2F78095822381BB089590E0FC01E15410
:1002E000F109E432F10508F067C0E25BFF4F0C94BE
:1002F0000313413059F42BB381E090E002C0880F22
:10030000991F6A95E2F7822B8BBB08952BB381E08E
:1003100090E002C0880F991F6A95E2F780958223CA
:100320008BBB0895413059F428B381E090E002C0BE
:10033000880F991F6A95E2F7822B88BB089528B32E
:1003400081E090E002C0880F991F6A95E2F78095DE
:10035000822388BB0895413059F425B381E090E0B1
:1003600002C0880F991F6A95E2F7822B85BB08951A
:1003700025B381E090E002C0880F991F6A95E2F7EB
:100380008095822385BB0895413059F422B381E0E2
:1003900090E002C0880F991F6A95E2F7822B82BB1A
:1003A000089522B381E090E002C0880F991F6A95FA
:1003B000E2F78095822382BB089590E0FC01E1542E
:1003C000F109E432F10508F054C0EE58FF4F0C94E7
:1003D000031349B381E090E09C01062E02C0220F76
:1003E000331F0A94E2F7842F90E08223932302C004
:1003F000959587956A95E2F7089546B381E090E078
:100400009C01062E02C0220F331F0A94E2F7842FAC
:1004100090E08223932302C0959587956A95E2F731
:10042000089543B381E090E09C01062E02C0220FA4
:10043000331F0A94E2F7842F90E08223932302C0B3
:10044000959587956A95E2F7089540B381E090E02D
:100450009C01062E02C0220F331F0A94E2F7842F5C
:1004600090E08223932302C0959587956A95E2F7E1
:10047000089580E0089590E0FC01E154F109E43230
:10048000F10508F067C0EA56FF4F0C9403134130A2
:1004900059F42BB381E090E002C0880F991F6A9550
:1004A000E2F7822B8BBB08952BB381E090E002C072
:1004B000880F991F6A95E2F7809582238BBB089578
:1004C000413059F428B381E090E002C0880F991FB1
:1004D0006A95E2F7822B88BB089528B381E090E00B
:1004E00002C0880F991F6A95E2F78095822388BB26
:1004F0000895413059F425B381E090E002C0880F9F
:10050000991F6A95E2F7822B85BB089525B381E098
:1005100090E002C0880F991F6A95E2F780958223C8
:1005200085BB0895413059F422B381E090E002C0C8
:10053000880F991F6A95E2F7822B82BB089522B338
:1005400081E090E002C0880F991F6A95E2F78095DC
:10055000822382BB08956295607F90E0FC01E154A4
:10056000F109E432F105F8F4E654FF4F0C9403135B
:100570008BB38F708BBB8BB3682B6BBB089588B329
:100580008F7088BB88B3682B68BB089585B38F7064
:1005900085BB85B3682B65BB089582B38F7082BB22
:1005A00082B3682B62BB08958EBB9FBB6DBB8CB3BF
:1005B00084608CBB8CB382608CBBE199FECF0895C4
:1005C0008EBB9FBB8CB381608CBB8DB3089541E023
:1005D00060E083E40E94FD0041E061E083E40E946A
:1005E000FD0041E062E083E40E94FD0041E063E041
:1005F00083E40E94FD0040E064E083E40E94FD008B
:1006000040E065E083E40E94FD0040E066E083E4B2
:100610000E94FD0040E067E083E40E94FD0041E0AD
:1006200064E083E40E943B0241E065E083E40E94D1
:100630003B0241E066E083E40E943B0241E067E068
:1006400083E40E943B020895EF92FF920F931F9361
:10065000CF93DF93CDB7DEB760970FB6F894DEBFC8
:100660000FBECDBF80E1E0E6F0E0DE011196019023
:100670000D928A95E1F7F12CEE24EA9439C041E01D
:1006800060E083E40E946D0141E061E083E40E9448
:100690006D0141E062E083E40E946D0141E063E0AE
:1006A00083E40E946D0140E06F2D83E40E946D01A0
:1006B00010E019C064E0610F83E40E94DD01082F9F
:1006C000811110C0EF2DF0E0EE0FFF1FEE0FFF1FA6
:1006D00081E090E08C0F9D1FE80FF91FE10FF11DE5
:1006E000E08003C01F5F143028F3002321F0F3944F
:1006F00093E09F1520F68E2D60960FB6F894DEBF1E
:100700000FBECDBFDF91CF911F910F91FF90EF9062
:10071000089541E062E081E40E946D018FE99FE06D
:100720000197F1F700C0000040E062E081E40E9420
:100730006D018FE99FE00197F1F700C00000089577
:10074000CF93C82F40E060E081E40E946D016C2FE0
:1007500062956F7081E40E94AB020E9489036C2F46
:1007600081E40E94AB020E9489038FEC97E001971D
:10077000F1F700C00000CF9108952FEF81EE94E0D3
:10078000215080409040E1F700C0000041E064E06B
:1007900081E40E94FD0041E065E081E40E94FD00EB
:1007A00041E066E081E40E94FD0041E067E081E411
:1007B0000E94FD0041E062E081E40E94FD0041E012
:1007C00061E081E40E94FD0041E060E081E40E947C
:1007D000FD0040E061E081E40E946D0182E00E9442
:1007E000A0038FE19EE40197F1F700C0000088E2CA
:1007F0000E94A0038FEC97E00197F1F700C0000082
:1008000081E00E94A0038FE19EE40197F1F700C010
:1008100000008CE00E94A0038FEC97E00197F1F7B5
:1008200000C0000086E00E94A0038FEC97E00197D3
:10083000F1F700C000000895CF93C82F41E060E0B9
:1008400081E40E946D016C2F62956F7081E40E94BB
:10085000AB020E9489036C2F81E40E94AB020E94CC
:100860008903CF910895CF93DF93EC0103C00E94D9
:100870001C04219688818111FACFDF91CF910895D0
:1008800081E00E94A0038FE19EE40197F1F700C090
:10089000000008959FEF980F9430C0F46531C0F4C4
:1008A0006623C1F0813019F48FE7860F16C08230BD
:1008B00019F48FEB860F11C0833019F483E9860F8A
:1008C0000CC0843049F483ED860F07C080E805C072
:1008D00080E803C080E801C080E00E94A0038FECA4
:1008E00097E00197F1F700C00000089541E00E94F1
:1008F000FD00089541E00E946D01089540E00E94CE
:100900006D010895CF93109231031092320310922B
:1009100033031092340378948FEF0E94E5128FE333
:100920009CE90197F1F700C000000E942403C82F42
:100930008F3F69F48091310390913203A09133038A
:10094000B091340388359240A105B10528F3F8949D
:100950008091310390913203A0913303B09134031D
:1009600089359240A105B10598F00E94400461E0EC
:1009700082E00E944A0480E790E00E9433048FEFF7
:1009800099E628E1815090402040E1F700C0000046
:100990008C2FCF910895CF93DF93CDB7DEB72897F3
:1009A0000FB6F894DEBF0FBECDBF0E94BD030E94FC
:1009B000E7020E94CC120E94ED1260E082E40E94E5
:1009C000760461E082E40E94760461E082E00E94A5
:1009D0004A048FE790E00E94330461E083E00E94C4
:1009E0004A0483E990E00E9433042FEF89E698E1FE
:1009F000215080409040E1F700C0000081E091E08C
:100A00000E94E0028F3F09F070C00E94400461E044
:100A100082E00E944A0484EA90E00E94330461E08C
:100A200083E00E944A0483EB90E00E9433042FEF9E
:100A300089E698E1215080409040E1F700C0000035
:100A40000E94400483EC90E00E94330461E083E064
:100A50000E944A0487ED90E00E94330410E022C017
:100A60000E942403082F8F3FD9F30E941C042FEF0C
:100A700084E39CE0215080409040E1F700C00000FA
:100A80006AE0610F83E00E944A048AE20E941C042B
:100A9000812F012E000C990B602F8E5F9E4F0E94BC
:100AA000D4021F5F1430E4F22FEF84E39CE0215066
:100AB00080409040E1F700C000000E94400461E0E7
:100AC00082E00E944A0481EE90E00E9433042FEFFE
:100AD00084E39CE0215080409040E1F700C000009A
:100AE00061E081E091E00E94D4028FEF0E94E51264
:100AF000809338032FE788E391E0215080409040B5
:100B0000E1F700C000008FEF0E94E51280933803E8
:100B10002FE788E391E0215080409040E1F700C04A
:100B200000008FEF0E94E51280933D032FE788E3DA
:100B300091E0215080409040E1F700C000008FEF2D
:100B40000E94E512809337032FE788E391E021505C
:100B500080409040E1F700C000008FEF0E94E51256
:100B6000809339032FE788E391E021508040904043
:100B7000E1F700C000008FEF0E94E51280933A0376
:100B80002FE788E391E0215080409040E1F700C0DA
:100B900000008FEF0E94E51280933C032FE788E36B
:100BA00091E0215080409040E1F700C000008FEFBD
:100BB0000E94E51280932F032FE788E391E02150F4
:100BC00080409040E1F700C000008FEF0E94E512E6
:100BD000809336032FE788E391E0215080409040D6
:100BE000E1F700C000008FEF0E94E51280933B0305
:100BF0002FE788E391E0215080409040E1F700C06A
:100C000000008FEF0E94E51280932E032FE788E308
:100C100091E0215080409040E1F700C000008FEF4C
:100C20000E94E512809335032FE788E391E021507D
:100C300080409040E1F700C000008FEF0E94E51275
:100C4000809330032FE788E391E02150804090406B
:100C5000E1F700C0000080E290E00E94E002182F5F
:100C6000811152C00E94400482EF90E00E94330440
:100C700061E082E00E944A0486E091E00E94330431
:100C800061E083E00E944A0489E191E00E9433041C
:100C900081E290E00E94E002082F29C06CE083E02E
:100CA0000E944A0417E60102112D1124159515958D
:100CB00007FD139580E3810F0E941C04110F812F03
:100CC000880F880F180F802F811B805D0E941C04E5
:100CD000602F81E290E00E94D4022FEF89E698E134
:100CE000215080409040E1F700C0000001500023F7
:100CF000ACF663E080E290E00E94D4026BE381E214
:100D000090E00E94D40213E00E94400485E291E04A
:100D10000E94330461E083E00E944A0485E391E08D
:100D20000E9433048FEF0E94E5128FE39CE9019744
:100D3000F1F700C000000E9424038F3F99F3813334
:100D400011F40C94EB0F823311F40C94F10F83CF58
:100D50000E94400489E491E00E94330461E083E052
:100D60000E944A0489E591E00E94330400E02EC00D
:100D70000E948204E82E0E941C049FEF24E38CE072
:100D8000915020408040E1F700C000006CE0600F0F
:100D900083E00E944A048AE20E941C04C02E002EB6
:100DA000000CDD08E1E0F0E0EC0FFD1FEC0DFD1D97
:100DB000E082C6018E5F9E4F0E94E002E5E0F0E017
:100DC000EC0FFD1FEC0DFD1D80830F5F043084F2DE
:100DD00020E016C0822F022E000C990BE5E0F0E017
:100DE000EC0FFD1FE80FF91F3081E1E0F0E0EC0FA0
:100DF000FD1FE80FF91F8081381305C02F5FF12C0C
:100E0000243044F302C0FF24F39491E0F9122BC084
:100E10006FEF610F80E290E00E94D4026BE381E209
:100E200090E00E94D4020E94400461E082E00E94AF
:100E30004A0485E691E00E94330461E083E00E9469
:100E40004A0487E791E00E9433048FE2810F0E94F9
:100E50001C042FEF89E698E1215080409040E1F793
:100E600000C00000F8CE63E080E290E00E94D4026F
:100E70000E94400461E082E00E944A0486E891E01A
:100E80000E9433042FEF84E39CE021508040904087
:100E9000E1F700C0000060E082E40E947A040C9454
:100EA000D60F0E94400488E991E00E94330461E07B
:100EB00082E00E944A0486EA91E00E94330461E0E5
:100EC00083E00E944A0489EB91E00E94330461E0D0
:100ED00084E00E944A048CEC91E00E9433040E945A
:100EE0008204813309F05FC14FC10E9440048EED3E
:100EF00091E00E94330461E083E00E944A048DEE99
:100F000091E00E9433040E948204813309F094C06E
:100F10000E9440048EED91E00E94330461E082E083
:100F20000E944A0482E092E00E94330461E083E080
:100F30000E944A0487E092E00E94330480913803C3
:100F4000813089F465E082E00E944A048DEC92E0F1
:100F50000E94330465E082E00E944A0481EF92E03F
:100F60000E94330410C065E082E00E944A048DECC8
:100F700092E00E94330465E082E00E944A0485E129
:100F800092E00E9433040E948204813341F581E0A3
:100F90008093380381E30E94E5122FE788E391E014
:100FA000215080409040E1F700C0000081E30E94A2
:100FB000E5122FE788E391E0215080409040E1F76F
:100FC00000C0000081E30E94E5122FE788E391E072
:100FD000215080409040E1F700C0000099CF82335B
:100FE00039F51092380381E30E94E5122FE788E378
:100FF00091E0215080409040E1F700C0000081E383
:101000000E94E5122FE788E391E021508040904054
:10101000E1F700C0000082E30E94E5122FE788E3B9
:1010200091E0215080409040E1F700C0000070CF77
:10103000803309F06DCFA8C0823309F0A2C092C0FE
:101040000E9440048EED91E00E94330461E082E052
:101050000E944A0489E192E00E94330461E083E047
:101060000E944A0487E092E00E94330480913A0390
:10107000813089F465E082E00E944A048DEC92E0C0
:101080000E94330465E082E00E944A0481EF92E00E
:101090000E94330410C065E082E00E944A048DEC97
:1010A00092E00E94330465E082E00E944A0485E1F8
:1010B00092E00E9433040E948204813341F581E072
:1010C00080933A0381E30E94E5122FE788E391E0E1
:1010D000215080409040E1F700C0000082E30E9470
:1010E000E5122FE788E391E0215080409040E1F73E
:1010F00000C0000081E30E94E5122FE788E391E041
:10110000215080409040E1F700C000002BC08233A6
:1011100039F510923A0381E30E94E5122FE788E344
:1011200091E0215080409040E1F700C0000082E350
:101130000E94E5122FE788E391E021508040904023
:10114000E1F700C0000082E30E94E5122FE788E388
:1011500091E0215080409040E1F700C0000002C0C3
:10116000803391F08091310390913203A091330349
:10117000B091340388359240A105B10508F460CFE1
:1011800003C0803309F412C7809131039091320378
:10119000A0913303B091340388359240A105B10585
:1011A00008F4A3CE03C7823309F05EC14EC10E948A
:1011B00040048EE192E00E94330461E083E00E94EB
:1011C0004A048DEE91E00E9433040E948204813330
:1011D00009F0A2C092C00E9440048EE192E00E94F9
:1011E000330461E082E00E944A0482E092E00E94BF
:1011F000330461E083E00E944A0487E092E00E94A9
:10120000330480913D03813089F465E082E00E94DF
:101210004A048DEC92E00E94330465E082E00E9473
:101220004A0481EF92E00E94330410C065E082E03E
:101230000E944A048DEC92E00E94330465E082E053
:101240000E944A0485E192E00E9433040E948204D5
:10125000813341F581E080933D0382E30E94E512F2
:101260008FE798E321E0815090402040E1F700C0F3
:10127000000081E30E94E5128FE798E321E08150AE
:1012800090402040E1F700C0000081E30E94E51299
:101290008FE798E321E0815090402040E1F700C0C3
:1012A00000002BC0823331F510923D030E94E512FD
:1012B0008FE798E321E0815090402040E1F700C0A3
:1012C000000081E30E94E5128FE798E321E081505E
:1012D00090402040E1F700C0000082E30E94E51248
:1012E0008FE798E321E0815090402040E1F700C073
:1012F000000003C0803309F4A8C0809131039091AD
:101300003203A0913303B091340388359240A10594
:10131000B10508F460CF99C0823309F093C00E94F0
:1013200040048EE192E00E94330461E082E00E947A
:101330004A0489E192E00E94330461E083E00E9464
:101340004A0487E092E00E94330480913C0381309C
:1013500089F465E082E00E944A048DEC92E00E94EC
:10136000330465E082E00E944A0481EF92E00E942B
:10137000330410C065E082E00E944A048DEC92E0E4
:101380000E94330465E082E00E944A0485E192E015
:101390000E9433040E948204813341F581E08093EE
:1013A0003C0382E30E94E5128FE798E321E081503D
:1013B00090402040E1F700C0000082E30E94E51267
:1013C0008FE798E321E0815090402040E1F700C092
:1013D000000081E30E94E5128FE798E321E081504D
:1013E00090402040E1F700C0000099CF823331F5F2
:1013F00010923C030E94E5128FE798E321E08150B0
:1014000090402040E1F700C0000082E30E94E51216
:101410008FE798E321E0815090402040E1F700C041
:10142000000082E30E94E5128FE798E321E08150FB
:1014300090402040E1F700C0000071CF803309F0F8
:101440006ECF03C0803309F4B1C580913103909110
:101450003203A0913303B091340388359240A10543
:10146000B10508F4A4CEA2C5833309F06EC15EC1F4
:101470000E9440048DE292E00E94330461E083E028
:101480000E944A048DEE91E00E9433040E9482047F
:10149000813309F0A3C093C00E9440048DE292E022
:1014A0000E94330461E082E00E944A0482E092E0FC
:1014B0000E94330461E083E00E944A0487E092E0E6
:1014C0000E94330480913703813089F465E082E023
:1014D0000E944A048DEC92E00E94330465E082E0B1
:1014E0000E944A0481EF92E00E94330410C065E03C
:1014F00082E00E944A048DEC92E00E94330465E091
:1015000082E00E944A0485E192E00E9433040E9436
:101510008204813341F581E08093370383E30E94A5
:10152000E5128FE798E321E0815090402040E1F7F9
:1015300000C0000081E30E94E5128FE798E321E0FC
:10154000815090402040E1F700C0000081E30E94FC
:10155000E5128FE798E321E0815090402040E1F7C9
:1015600000C000002CC0823339F51092370383E3AA
:101570000E94E5128FE798E321E0815090402040DF
:10158000E1F700C0000081E30E94E5128FE798E3D5
:1015900021E0815090402040E1F700C0000082E34C
:1015A0000E94E5128FE798E321E0815090402040AF
:1015B000E1F700C0000003C0803309F4B7C0809198
:1015C000310390913203A0913303B09134038835F5
:1015D0009240A105B10508F45FCFA8C0823309F09D
:1015E000A2C092C00E9440048DE292E00E943304A7
:1015F00061E082E00E944A0489E192E00E943304A3
:1016000061E083E00E944A0487E092E00E94330494
:1016100080912F03813089F465E082E00E944A04C2
:101620008DEC92E00E94330465E082E00E944A045F
:1016300081EF92E00E94330410C065E082E00E94D6
:101640004A048DEC92E00E94330465E082E00E943F
:101650004A0485E192E00E9433040E9482048133AF
:1016600041F581E080932F0383E30E94E5128FE729
:1016700098E321E0815090402040E1F700C0000055
:1016800082E30E94E5128FE798E321E081509040C9
:101690002040E1F700C0000081E30E94E5128FE7DF
:1016A00098E321E0815090402040E1F700C0000025
:1016B0002BC0823339F510922F0383E30E94E51289
:1016C0008FE798E321E0815090402040E1F700C08F
:1016D000000082E30E94E5128FE798E321E0815049
:1016E00090402040E1F700C0000082E30E94E51234
:1016F0008FE798E321E0815090402040E1F700C05F
:10170000000002C0803391F0809131039091320348
:10171000A0913303B091340388359240A105B105FF
:1017200008F460CF03C0803309F440C480913103D2
:1017300090913203A0913303B091340388359240E5
:10174000A105B10508F494CE31C4843309F077C102
:1017500067C10E9440048EE392E00E94330461E07E
:1017600083E00E944A048DEE91E00E9433040E94BF
:101770008204813309F0ACC09CC00E9440048EE317
:1017800092E00E94330461E082E00E944A0482E019
:1017900092E00E94330461E083E00E944A0487E003
:1017A00092E00E94330480913903813089F465E02E
:1017B00082E00E944A048DEC92E00E94330465E0CE
:1017C00082E00E944A0481EF92E00E94330410C03C
:1017D00065E082E00E944A048DEC92E00E943304AE
:1017E00065E082E00E944A0485E192E00E943304B1
:1017F0000E948204813341F581E08093390384E3C0
:101800000E94E5128FE798E321E08150904020404C
:10181000E1F700C0000081E30E94E5128FE798E342
:1018200021E0815090402040E1F700C0000081E3BA
:101830000E94E5128FE798E321E08150904020401C
:10184000E1F700C0000035C0823381F51092390302
:1018500084E30E94E5128FE798E321E081509040F5
:101860002040E1F700C000008FE798E321E08150BD
:1018700090402040E1F700C0000081E30E94E512A3
:101880008FE798E321E0815090402040E1F700C0CD
:10189000000082E30E94E5128FE798E321E0815087
:1018A00090402040E1F700C0000003C0803309F4FD
:1018B000B7C08091310390913203A0913303B0916E
:1018C000340388359240A105B10508F456CFA8C06D
:1018D000823309F0A2C092C00E9440048EE392E0DD
:1018E0000E94330461E082E00E944A0489E192E0B0
:1018F0000E94330461E083E00E944A0487E092E0A2
:101900000E94330480913603813089F465E082E0DF
:101910000E944A048DEC92E00E94330465E082E06C
:101920000E944A0481EF92E00E94330410C065E0F7
:1019300082E00E944A048DEC92E00E94330465E04C
:1019400082E00E944A0485E192E00E9433040E94F2
:101950008204813341F581E08093360384E30E9461
:10196000E5128FE798E321E0815090402040E1F7B5
:1019700000C0000082E30E94E5128FE798E321E0B7
:10198000815090402040E1F700C0000081E30E94B8
:10199000E5128FE798E321E0815090402040E1F785
:1019A00000C000002BC0823339F51092360384E367
:1019B0000E94E5128FE798E321E08150904020409B
:1019C000E1F700C0000082E30E94E5128FE798E390
:1019D00021E0815090402040E1F700C0000082E308
:1019E0000E94E5128FE798E321E08150904020406B
:1019F000E1F700C0000002C0803391F08091310314
:101A000090913203A0913303B09134038835924012
:101A1000A105B10508F460CF03C0803309F4C6C244
:101A20008091310390913203A0913303B09134033C
:101A300088359240A105B10508F48BCEB7C2813438
:101A400009F0B2C2A2C20E9440048EE492E00E9459
:101A5000330461E082E00E944A0482E692E00E9440
:101A6000330461E083E00E944A0486E792E00E942A
:101A7000330461E084E00E944A0489E892E00E9415
:101A800033040E948204853309F08BC00E94400415
:101A90008DE992E00E94330461E082E00E944A04F2
:101AA0008AEA92E00E94330461E083E00E944A04E3
:101AB00082EB92E00E94330465C080913B03813049
:101AC00089F468E082E00E944A0487EC92E00E9478
:101AD000330468E082E00E944A0481EF92E00E94B1
:101AE000330410C068E082E00E944A0488EC92E06F
:101AF0000E94330468E082E00E944A048FEF90E085
:101B00000E9433040E9482048133E1F481E08093D7
:101B10003B0385E30E94E5128FE798E321E08150C3
:101B200090402040E1F700C0000081E30E94E512F0
:101B30008FE798E321E0815090402040E1F700C01A
:101B4000000020C08233D9F410923B0385E30E9449
:101B5000E5128FE798E321E0815090402040E1F7C3
:101B600000C0000082E30E94E5128FE798E321E0C5
:101B7000815090402040E1F700C0000003C0803356
:101B800009F403C28091310390913203A091330391
:101B9000B091340388359240A105B10508F48DCF8A
:101BA000F4C1873309F08BC00E94400481ED92E0BC
:101BB0000E94330461E082E00E944A048AEA92E0D3
:101BC0000E94330461E083E00E944A0487E092E0CF
:101BD0000E94330465C080913503813089F468E048
:101BE00082E00E944A048DEC92E00E94330468E097
:101BF00082E00E944A0481EF92E00E94330410C008
:101C000068E082E00E944A048DEC92E00E94330476
:101C100068E082E00E944A0485E192E00E94330479
:101C20000E9482048133E1F481E08093350387E3ED
:101C30000E94E5128FE798E321E081509040204018
:101C4000E1F700C0000081E30E94E5128FE798E30E
:101C500021E0815090402040E1F700C0000020C00A
:101C60008233D9F41092350387E30E94E5128FE79F
:101C700098E321E0815090402040E1F700C000004F
:101C800082E30E94E5128FE798E321E081509040C3
:101C90002040E1F700C0000003C0803309F475C1A3
:101CA0008091310390913203A0913303B0913403BA
:101CB00088359240A105B10508F48DCF66C1863301
:101CC00009F08BC00E94400485EE92E00E9433042C
:101CD00061E082E00E944A048AEA92E00E943304B2
:101CE00061E083E00E944A0487E092E00E943304AE
:101CF00065C080912E03813089F468E082E00E9403
:101D00004A048DEC92E00E94330468E082E00E9475
:101D10004A0481EF92E00E94330410C068E082E040
:101D20000E944A048DEC92E00E94330468E082E055
:101D30000E944A0485E192E00E9433040E948204DA
:101D40008133E1F481E080932E0386E30E94E51263
:101D50008FE798E321E0815090402040E1F700C0F8
:101D6000000081E30E94E5128FE798E321E08150B3
:101D700090402040E1F700C0000020C08233D9F439
:101D800010922E0386E30E94E5128FE798E321E08C
:101D9000815090402040E1F700C0000082E30E94A3
:101DA000E5128FE798E321E0815090402040E1F771
:101DB00000C0000003C0803309F4E7C08091310304
:101DC00090913203A0913303B0913403883592404F
:101DD000A105B10508F48DCFD8C0893309F07CC0C6
:101DE0000E94400461E082E00E944A0484EF92E095
:101DF0000E94330462C089E30E94E5128FE798E3F2
:101E000021E0815090402040E1F700C000008FEFBA
:101E10000E94E512809330038FE798E321E0815020
:101E200090402040E1F700C00000809130038A30EC
:101E300098F467E083E00E944A0480E20E941C0458
:101E400080913003805D0E941C048FED0E941C0471
:101E500083E40E941C0429C0843638F567E083E0DF
:101E60000E944A04809130031DEC819F812D112432
:101E7000869586958695805D0E941C04809130032E
:101E8000819F112D1124169516951695110F912FDE
:101E9000990F990F190F811B805D0E941C048FED13
:101EA0000E941C0483E40E941C040E9424038F3FB0
:101EB00009F4A1CF803309F468C080913103909177
:101EC0003203A0913303B091340388359240A105C9
:101ED000B10508F490CF59C0883309F054C00E946E
:101EE000400483EC90E00E94330461E083E00E94B0
:101EF0004A0487ED90E00E94330410E020C00E9465
:101F00008204082F0E941C048FEF94E32CE0815080
:101F100090402040E1F700C000006AE0610F83E0DC
:101F20000E944A048AE20E941C04812F012E000CA8
:101F3000990B602F8E5F9E4F0E94D4021F5F14305A
:101F4000F4F28FEF94E32CE0815090402040E1F7D1
:101F500000C000000E94400461E082E00E944A0448
:101F600081EE90E00E9433048FEF94E32CE08150E7
:101F700090402040E1F700C0000061E081E091E086
:101F80000E94D40202C0803389F080913103909185
:101F90003203A0913303B091340388359240A105F8
:101FA000B10508F450CD02C0803379F0809131033F
:101FB00090913203A0913303B0913403883592405D
:101FC000A105B10510F40C94510760E082E40E9471
:101FD0007E040C942B06112311F40C942B060C9404
:101FE000A80661E082E40E947A049DC20E94400437
:101FF00088E991E00E94330461E082E00E944A0493
:1020000084E093E00E94330461E083E00E944A048C
:1020100086E193E00E94330461E084E00E944A0478
:1020200085E992E00E9433040E948204813309F022
:10203000A3C00E9440048EED91E00E94330461E051
:1020400082E00E944A0488E293E00E94330461E047
:1020500083E00E944A0487E092E00E9433047DC03E
:1020600080913803813089F465E082E00E944A045F
:102070008DEC92E00E94330465E082E00E944A0405
:1020800081EF92E00E94330410C065E082E00E947C
:102090004A048DEC92E00E94330465E082E00E94E5
:1020A0004A0485E192E00E9433040E948204813355
:1020B00041F581E08093380381E30E94E5128FE7C8
:1020C00098E321E0815090402040E1F700C00000FB
:1020D00081E30E94E5128FE798E321E08150904070
:1020E0002040E1F700C0000081E30E94E5128FE785
:1020F00098E321E0815090402040E1F700C00000CB
:102100002CC0823339F51092380381E30E94E51226
:102110008FE798E321E0815090402040E1F700C034
:10212000000081E30E94E5128FE798E321E08150EF
:1021300090402040E1F700C0000082E30E94E512D9
:102140008FE798E321E0815090402040E1F700C004
:10215000000003C0803309F4E6C1809131039091FF
:102160003203A0913303B091340388359240A10526
:10217000B10508F475CFD7C1823309F0A2C00E941F
:1021800040048EE192E00E94330461E082E00E940C
:102190004A0488E293E00E94330461E083E00E94F5
:1021A0004A0487E092E00E9433047CC080913D03A2
:1021B000813089F465E082E00E944A048DEC92E06F
:1021C0000E94330465E082E00E944A0481EF92E0BD
:1021D0000E94330410C065E082E00E944A048DEC46
:1021E00092E00E94330465E082E00E944A0485E1A7
:1021F00092E00E9433040E948204813341F581E021
:1022000080933D0382E30E94E5128FE798E321E08B
:10221000815090402040E1F700C0000081E30E941F
:10222000E5128FE798E321E0815090402040E1F7EC
:1022300000C0000081E30E94E5128FE798E321E0EF
:10224000815090402040E1F700C000002BC0823355
:1022500031F510923D030E94E5128FE798E321E0EB
:10226000815090402040E1F700C0000081E30E94CF
:10227000E5128FE798E321E0815090402040E1F79C
:1022800000C0000082E30E94E5128FE798E321E09E
:10229000815090402040E1F700C0000003C080332F
:1022A00009F441C18091310390913203A09133032D
:1022B000B091340388359240A105B10508F476CF7A
:1022C00032C1833309F0A3C00E9440048DE292E042
:1022D0000E94330461E082E00E944A0488E293E0B5
:1022E0000E94330461E083E00E944A0487E092E0A8
:1022F0000E9433047DC080913703813089F465E00A
:1023000082E00E944A048DEC92E00E94330465E072
:1023100082E00E944A0481EF92E00E94330410C0E0
:1023200065E082E00E944A048DEC92E00E94330452
:1023300065E082E00E944A0485E192E00E94330455
:102340000E948204813341F581E08093370383E367
:102350000E94E5128FE798E321E0815090402040F1
:10236000E1F700C0000081E30E94E5128FE798E3E7
:1023700021E0815090402040E1F700C0000081E35F
:102380000E94E5128FE798E321E0815090402040C1
:10239000E1F700C000002CC0823339F510923703FA
:1023A00083E30E94E5128FE798E321E0815090409B
:1023B0002040E1F700C0000081E30E94E5128FE7B2
:1023C00098E321E0815090402040E1F700C00000F8
:1023D00082E30E94E5128FE798E321E0815090406C
:1023E0002040E1F700C0000003C0803309F49BC027
:1023F0008091310390913203A0913303B091340363
:1024000088359240A105B10508F475CF8CC084339E
:1024100009F087C00E9440048EE392E00E943304DA
:1024200061E082E00E944A0488E293E00E94330463
:1024300061E083E00E944A0487E092E00E94330456
:1024400061C080913903813089F465E082E00E94A7
:102450004A048DEC92E00E94330465E082E00E9421
:102460004A0481EF92E00E94330410C065E082E0EC
:102470000E944A048DEC92E00E94330465E082E001
:102480000E944A0485E192E00E9433040E94820483
:10249000813341F581E08093390384E30E94E512A2
:1024A0008FE798E321E0815090402040E1F700C0A1
:1024B000000081E30E94E5128FE798E321E081505C
:1024C00090402040E1F700C0000081E30E94E51247
:1024D0008FE798E321E0815090402040E1F700C071
:1024E000000010C0823361F41092390384E30E942B
:1024F000E51281E30E94E51282E30E94E51202C028
:10250000803389F08091310390913203A09133039D
:10251000B091340388359240A105B10508F491CFFC
:1025200002C0803371F08091310390913203A09109
:102530003303B091340388359240A105B10508F406
:1025400055CD61E082E40E947E040C942B061F921C
:102550000F920FB60F9211248F939F93AF93BF9357
:102560008091310390913203A0913303B0913403F1
:102570000196A11DB11D8093310390933203A09366
:102580003303B0933403BF91AF919F918F910F901C
:102590000FBE0F901F90189587B3806187BB87B3DC
:1025A000806287BB87B3806887BB88B3806188BB44
:1025B0008DB180648DB98DB180618DB98DB181602F
:1025C0008DB98DB18D7F8DB9089598B39F7E98BBDD
:1025D0008FB9779BFECF8FB1089583B78F7B83BF71
:1025E00083B7886083BF80E58CBF83B7816083BF7A
:1025F00083B78D7F83BF83B7846083BF789489B7A7
:10260000826089BF0895EE0FFF1F0590F491E02DC1
:062610000994F894FFCFCD
:102616003738392F3435362A3132332D41303D2B78
:1026260020202020202054696D65204F75740020DD
:10263600202057656C636F6D6520746F20536D6144
:102646007274002020202020486F6D6520737973F6
:1026560074656D0020202020206C6F67696E2066EF
:102666006F720020202020206669727374207469BE
:102676006D6500207365742041646D696E2070611C
:102686007373776F72640070617373776F72643AF5
:102696000020202070617373776F726420736176F7
:1026A600650020207468652073797374656D2063F6
:1026B6006C6F736564002020706C656173652074AF
:1026C600727920616761696E002020202020616692
:1026D6007465723A0020202073656C656374206D02
:1026E6006F64653A00312D41646D696E20202020AB
:1026F60020322D4775657374002020202020416408
:102706006D696E206D6F646500636865636B20702C
:102716006173733A0020202057726F6E67207061D4
:102726007373776F7264002020205472696573207A
:102736006C6566743A0020202052696768742070C0
:10274600617373776F726400436F6E74726F6C207F
:102756004C6973743A0020312D526F6F6D31202011
:1027660020322D526F6F6D320020332D526F6F6DF8
:1027760031202020342D526F6F6D340020302D62B1
:1027860061636B20202020412D6D6F726500202033
:1027960020202020526F6F6D206F6E6500302D62F5
:1027A60061636B2020312D6C65642020322D6661BB
:1027B6006E006C65643A00302D6261636B20312DCA
:1027C6006F6E20322D6F66660066616E3A002020BD
:1027D60020202020526F6F6D2074776F00202020FC
:1027E600202020526F6F6D2074687265650020206E
:1027F60020202020526F6F6D20666F757200203585
:102806002D486F6D6520446F6F722020362D54560B
:10281600200020372D6169725F636F6E6469746989
:102826006F6E696E670020382D6368616E6765207C
:1028360070617373776F72640020392D54656D7003
:10284600202020202020302D6261636B0020202074
:10285600486F6D6520446F6F720073746174757391
:102866003A00302D6261636B20312D6F6E20322D60
:10287600636C6F73656400202020202020202020B8
:102886000043656E7472616C20636F646974696F6E
:102896006E696E67002020202054656C657669732A
:1028A600696F6E002020202054656D70657261741A
:1028B6007572650020312D526F6F6D312020322DDB
:1028C600526F6F6D320020332D526F6F6D332020A3
:0E28D600342D526F6F6D34004C45443A0000B3
:00000001FF
